:020000040000fa
:080000000002040000000000f2
:020000040000fa
:100008009a0200009a0200009a0200009a02000078
:100018009a0200009a0200009a0200009a02000068
:100028009a0200009a0200009a0200009a02000058
:100038009a0200009a0200009a0200009a02000048
:100048009a0200009a0200009a0200009a02000038
:100058009a020000542000009a0200009a02000050
:100068009a0200009a0200009a0200007420000020
:100078009a0200009a0200009a0200009a02000008
:100088009a0200009a0200009a0200009a020000f8
:100098009a0200009a0200009a0200009a020000e8
:1000a8009a0200009a0200009a0200009a020000d8
:1000b8009a0200009a0200009a0200009a020000c8
:1000c8009a0200009a0200009a0200009a020000b8
:1000d8009a0200009a0200009a0200009a020000a8
:1000e8009a0200009a0200009a0200009a02000098
:1000f8009a0200009a0200009a0200009a02000088
:100108009a0200009a0200009a0200009a02000077
:100118009a0200009a0200009a0200009a02000067
:100128009a0200009a0200009a0200009a02000057
:100138009a0200009a0200009a0200009a02000047
:100148009a0200009a0200009a0200009a02000037
:100158009a0200009a0200009a0200009a02000027
:100168009a0200009a0200009a0200009a02000017
:100178009a0200009a0200009a0200009a02000007
:100188009a0200009a0200009a0200009a020000f7
:100198009a0200009a0200009a0200009a020000e7
:1001a8009a0200009a0200009a0200009a020000d7
:1001b8009a0200009a0200009a0200009a020000c7
:1001c8009a0200009a0200009a0200009a020000b7
:1001d8009a0200009a0200009a0200009a020000a7
:1001e8009a0200009a0200009a0200009a02000097
:0801f8009a0200009a020000c7
:020000040000fa
:100208009a0200009a0200009a0200009a02000076
:100218009a0200009a0200009a0200009a02000066
:100228009a0200009a0200009a0200009a02000056
:100238009a0200009a0200009a0200009a02000046
:100248009a0200009a0200009a0200009a02000036
:100258009a020000542000009a0200009a0200004e
:100268009a0200009a0200009a020000742000001e
:100278009a0200009a0200009a0200009a02000006
:100288009a0200009a0200009a0200009a020000f6
:100298009a0200009a0200009a0200009a020000e6
:1002a8009a0200009a0200009a0200009a020000d6
:1002b8009a0200009a0200009a0200009a020000c6
:1002c8009a0200009a0200009a0200009a020000b6
:1002d8009a0200009a0200009a0200009a020000a6
:1002e8009a0200009a0200009a0200009a02000096
:1002f8009a0200009a0200009a0200009a02000086
:100308009a0200009a0200009a0200009a02000075
:100318009a0200009a0200009a0200009a02000065
:100328009a0200009a0200009a0200009a02000055
:100338009a0200009a0200009a0200009a02000045
:100348009a0200009a0200009a0200009a02000035
:100358009a0200009a0200009a0200009a02000025
:100368009a0200009a0200009a0200009a02000015
:100378009a0200009a0200009a0200009a02000005
:100388009a0200009a0200009a0200009a020000f5
:100398009a0200009a0200009a0200009a020000e5
:1003a8009a0200009a0200009a0200009a020000d5
:1003b8009a0200009a0200009a0200009a020000c5
:1003c8009a0200009a0200009a0200009a020000b5
:1003d8009a0200009a0200009a0200009a020000a5
:1003e8009a0200009a0200009a0200009a02000095
:0803f8009a0200009a020000c5
:020000040000fa
:100400000fa620000e7f22000e01880000000000d1
:10041000000020000000e000020032000001200087
:10042000200288000c000700a0d621000100200057
:1004300011000700000020000000e0000200320070
:100440000000020000000000281f02000000000061
:100450000040da000000fe004440a9000002200035
:100460000000e0000300320000002000a00188002e
:100470004440a80000000600910188008000780038
:100480000000eb0015003700e280400032a0b4000d
:100490009101ba00e280400032a0b4009102ba009b
:1004a000e280400032a0b4000002eb00472bde00e7
:1004b000f507b200602ce10004003a000059eb009f
:1004c0008301e900fdff3e00040037006128e100e0
:1004d000010032000082eb00040007001101ba00a5
:1004e0000200e000e8ff3a00000006003159ba00bf
:1004f0008301e9000c0032002159ba008301e900b0
:10050000080032000400e00003003a00e2804000ee
:1005100032a0b400f5ff370011d9ba008301e90019
:10052000faff3a008100e800e180400032a0b40008
:10053000000006000040da000000fe000a00fa0099
:10054000e20f500022003e00f4528000e10f520002
:1005500006003200872320004623200024232000a9
:1005600005232000e08f530004003a00872220007a
:10057000462220002422200005222000000028001e
:100580001500600003003a00800b78000700280087
:10059000958a7300054020009482620001003a00b1
:1005a00014a0a000820278000600370094037800af
:1005b0000710b200fdff3200b103fb00070b78000b
:1005c0008502e900e08f5200f8ff3a00080037008a
:1005d00034002000c0bf9f00e2bf9f00b4bf9f0057
:1005e000d1bf9f006a8057001d0807006fb99700b0
:1005f000020078000080fa00000006004f89de004b
:100600008201780034003700889fbe008a9fbe00b8
:100610008c1f7800950007009c00330003866c0057
:100620006450e100240032006420e1002700320021
:100630006150e100220032006120e100210032001f
:100640008b854200eb07b1000134b800003ab800d6
:100650000804420089844a00013ab8000030b8001a
:100660008880400009014a00040033000000400077
:1006700081804800020149008b05e900c909dd00bd
:10068000830170000100320013002000c814de0056
:100690004814dd004709de001200b200c808de0081
:1006a000088470004b00070001f0a1000cf0a700c7
:1006b00001f0a0007e0037006120e10080003200e0
:1006c0000801be000200be00f7ff37006150e100e4
:1006d000fcff3a007a003700881f78000304780096
:1006e0000300e00007003d0060001000e0801800fb
:1006f00060011900e081190002003b0001f02d00ab
:10070000030037000400070008f0a70001f0a00074
:100710004f04780000000600889fbe008a9fbe003c
:100720000082700004027100048271002600320011
:100730000004be000200be006011b8006b0920007a
:10074000950220000182cf000a0039000541b10066
:100750000082cf00070039000541b1000982cf00b7
:10076000040039000541b1000882cf0001003900c2
:100770000541b10005425200120032000a003b0060
:1007800082817100610164008100d1000080d3008a
:100790008984d3000884d3008b05e8000442e80074
:1007a000f7ff3a00070037000804440089844c0032
:1007b00000004800818048008b05e9000442e90000
:1007c000f9ff3a00030007004f05be004f04be00ca
:1007d0000000060081002000618055000b003d00f4
:1007e0000b00200061fe2f000100e1001d0034001d
:1007f00082817100610164008904d1000884d30002
:100800000000e800faff3a00710020006100640077
:10081000030070000200600009003200610444001f
:10082000e0844c000988a500050032008b05e80033
:100830006808e10002003a008904d1000884d3006e
:10084000f20f20000258e10005003d00c75ddd0009
:10085000f907b200898075000800780000000600e2
:100860000bf827008b007800000005000004be0094
:10087000160007000003be000405be000200be0013
:1008800012000700844f7500000006000200be0041
:100890006450e100050036006420e10002003600eb
:1008a0000968a30001003a000800be000160a00032
:1008b0004f0678004f05be004f04be000000060042
:1008c000f0ff2f00f1ff2700f9ff3700c70ade0015
:1008d000f107b200f50fb20008003200e1cf42008c
:1008e000020032000170a00024000500810f70009a
:1008f000010032000408050044000500810f70006b
:1009000002003a00140005008502e90000004000e2
:1009100081c04800fcff3b000170a00024000500de
:100920000c00fa00889fbe00f4ff27000004780046
:10093000d4bf9f008004eb0088bf9f0099bf9f0039
:10094000a8bf9f00240c200078815700b4bf9f00ef
:10095000cfb0970070805700c40007000fba97000f
:10096000094a78000fba9700080052004f04be00f1
:100970000080fa0000000600d4c6b3000800fa00a8
:10098000889fbe000084fb008a9fbe00844f5000f9
:1009900034003600898b20004b062000110009002e
:1009a0000b84d800720040004300dd00008044004a
:1009b000810578006022b8000600200007fe2300b1
:1009c000aa0020005001be004000be00e908070058
:1009d0000002be00110009008a85d8008005780059
:1009e000e9854500c35ddd008b8544000203be0040
:1009f00084bf9f0095bf9f00a6bf9f00b7bf9f0009
:100a00003b02be002b03be000fb897009fb89700b3
:100a10002fb99700bfb99700d60807000002be00a3
:100a2000110009000a84d800010478004344dd0065
:100a3000888444000203be0084bf9f0095bf9f00ce
:100a4000a6bf9f00b7bf9f003902be002903be00aa
:100a50000fb897009fb897002fb99700bfb99700bc
:100a60001d003700ea4f500013003600aa00200096
:100a7000898b2000110009000a84d8000105780044
:100a8000690440004355dd004344dd000884440010
:100a90008a8444006022b8000600200007fe23007c
:100aa0003800be002801be00b20807003902be00af
:100ab0002903be0008003700848b20004344dd007a
:100ac000080442006022b8000600200007fe230050
:100ad0003800be002801be00a60807004f05be0072
:100ae0004f04be000080fa0000000600d4c6b30028
:100af0000800fa00889fbe008a9fbe00e04f5000a9
:100b000022003d000040ea000004fb00844f50003a
:100b10000a00340044062000a9002000110009004a
:100b20000404d8008a8b2000110009008900d80035
:100b3000e9004000c308dd0020003700ea4f500004
:100b40000f003400a4002000110009000404d800a4
:100b5000848b2000690040004300dd00000042005b
:100b6000430cdd00080242005001be004000be0000
:100b70005403be004402be007e0807003700370061
:100b80004344dd00848b2000310037000004fb006b
:100b9000844f50002300340044062000a9002000a8
:100ba000110009000404d8008a8020001100090007
:100bb0008900d800e9004000c308dd00810045003d
:100bc0008b0920008a8545003102be002103be004a
:100bd0003b00be002b01be00660807000002be00fd
:100be000110009000904d800010478004344dd0025
:100bf000080545000203be0084bf9f0095bf9f000b
:100c0000a6bf9f00b7bf9f003a02be002a03be00e6
:100c10000fb897009fb897002fb99700bfb99700fa
:100c2000d5ff3700ea4f500007003400a400200031
:100c3000110009000404d8008480200069004000ed
:100c40004300dd00c5ff37004344dd008480200001
:100c5000080442003800be002801be004f05be0057
:100c60004f04be000080fa0000000600ef05b0004f
:100c7000889fbe008a9fbe008c9fbe000006780041
:100c80008e1f78000007eb00e19f9f0082af9f005e
:100c90006000b8006011b80080a79f0091a79f0076
:100ca000a2a79f00b3a79f00db053700ef9897002e
:100cb00054c2b3008100e800e19f9f00844f5000c0
:100cc00006003a00010378008006eb0007c3b3007a
:100cd00000c2b300b1c2b3000e0037003c02900066
:100ce0000404b200040032001c027800004a7800bc
:100cf000040ee800050037000000fb008c007800bf
:100d0000d1050700e10f4000c30532000e07e800df
:100d1000c105370006027800d2c2b300b64278009f
:100d200082cf52000900320005003c0080cf520003
:100d30000800320081cf52000c003a000700370053
:100d400087cf520009003a00060037000d30a0009e
:100d5000f0ff37000d00a000eeff37000d10a000df
:100d6000ecff37000d20a000eaff37006283660029
:100d7000010032000d00a10068836600010032000e
:100d80000d20a1000503fb000603b100e90f53008d
:100d90000e003e008001eb0084027800830378009f
:100da0003502fb006a3bb9000403b1008603420030
:100db0001503fb00050278000603b100e90f53009c
:100dc000f7ff360097b79f000a0037000003eb00db
:100dd00096b79f00a6c2b30086cf520005003a0026
:100de0008fab97000402e8004700780087af9f00b0
:100df00090b79f00e5c2b30094cf120018003a00ec
:100e00000de0a000e4c25200d4cf12000400320072
:100e10008000eb008402780081037800090037002d
:100e20000fa997000402e800c201780082af9f007a
:100e3000d3af9f00c6c6b3000d0037006a38b900b3
:100e400080034300050278003503fb000603b10070
:100e5000e90f5300f9ff3600d7af9f00f5ff3700c9
:100e60008002eb000dc0a000d5af9f00f1ff37005e
:100e700084037800b74278000702780086cf5200da
:100e80002d003200e79f9f00c4c6b30084cf5200fc
:100e900014003c006842520084cf5200240032000b
:100ea00009003c006c42520084cf52002f003200f7
:100eb0006b42420084cf52009a003200e0cf5200d1
:100ec0005a053200b800370064c6b30084cf520020
:100ed000200032006342420084cf5200b2003a0048
:100ee0001300370034c7b30084cf52002300320010
:100ef00007003c006442520084cf520018003200c8
:100f00000442e80084cf5200a7003a0017003700df
:100f100054c7b30084cf5200a8003200634242009d
:100f200084cf5200a0003a00e5579f00110037001f
:100f3000e5579f00a3003700f083660005012000fd
:100f400001003200050028008d82720085067800bd
:100f5000c7ff3700e5579f000da0a000990037009c
:100f6000e5579f000d60a00096003700e5579f00f1
:100f70000d50a0000d70a000920037000fab97003d
:100f8000e5579f004602780086af9f000404780072
:100f9000e00f520001003a00a89820008802780073
:100fa0000002eb00010037000402e80065437a000c
:100fb000e04f5300fcff3a0084047800dfab970059
:100fc000e08f530003003200898f5300010031008d
:100fd000870478000002eb001fb09700890f5000d3
:100fe0000100360009025000e8866600ddaf9f0070
:100ff0008d007800e08f50002d003a0084067800c4
:1010000004c2b30010003700bc0290000504b20017
:10101000040032009c027800844a7800050ee80043
:101020000700370084bf9f008c007800000220007a
:10103000050507000fba9700e10f400001003200dc
:101040000e07e8008d06e900e08f5600eeff3a003b
:101050000082eb0016003700bc0290000504b200cd
:1010600009003200880278009c037800354378003c
:10107000864b780005047800070ee800e04f530027
:101080000a003a000a003700880278008c007800d5
:101090003500fb0084bf9f0005047800ea040700c8
:1010a0000fba9700e10f4000010032000e07e80080
:1010b000890278008504e900e08f5200e6ff3a00db
:1010c0005fa99700e00f5100d30432008406780036
:1010d00004c2b30010003700bc0290000504b20047
:1010e000040032009c027800844a7800050ee80073
:1010f0000700370084bf9f008c00780000022000aa
:10110000d10407000fba9700e10f40000100320040
:101110000e07e8008d06e900e08f5600eeff3a006a
:10112000bd0437008fa99700f08266004302780063
:1011300083af9f0004007800cf80de0001017800bb
:101140008201780090af9f00a1af9f00b2af9f00d7
:10115000c3af9f004800de00480add0000007200b7
:10116000e0579f00e08f520009003200e04f50002e
:1011700007003200e14f400005003200afd2970077
:10118000f0579f00855f9f00290020000300370073
:101190002fd3970019002000f6579f0078f92f00f1
:1011a0000f04440085ff3700e5579f0068f92f00c2
:1011b0000f0444001900200080ff3700e5579f000e
:1011c0000d0cb3000470200004826600650232003a
:1011d0000400210004826600020032006700200043
:1011e000d7af9f0070826600090032000faa9700f7
:1011f0004401be004400be0084af9f0090af9f003a
:10120000a1af9f00b2af9f00c3af9f000a0037009d
:101210008faa97004500be0085af9f003d060700de
:101220000002be000203be0094af9f00a5af9f0066
:10123000b6af9f00c7af9f006022b8006033b80010
:101240001fa89700afa897003fa99700cfa99700c4
:1012500082050700e00f50000a003d001fa897001c
:10126000afa897003fa99700cfa9970003f0a2006d
:1012700090af9f00a1af9f00b2af9f00c3af9f0090
:101280003d00b3000002eb001fa89700afa8970035
:101290003fa99700cfa99700d48f9f006022b80084
:1012a0006033b800d1050700e00f50003400320071
:1012b000a4f92f000f0242001fa89700afa89700c3
:1012c0003fa99700cfa997008d0607005f88970078
:1012d000a40020000000e9006300b900110009002b
:1012e0000400d800d08f9f00e00f500002003d00a6
:1012f0000000e900d08f9f005f8c97000840ea0053
:10130000fafd07001faa9700afaa97003fab97000e
:10131000cfab9700970607000002be000203be0095
:1013200084a79f0095a79f00a6a79f00b7a79f002f
:101330006022b8000600200007ff230047050700d1
:10134000e00f500002003d000804e9000b003700e8
:101350006022b80006002000470224000fa097007a
:101360009fa097002fa19700bfa1970040050700fd
:10137000e00f5000020035000804e800d88f9f00fd
:10138000dfaa9700f88f52000f003c00054078005c
:1013900079fd07000002be000203be001fa89700ef
:1013a000afa897003fa99700cfa99700ae04070008
:1013b0000002be000203be0094af9f00a5af9f00d5
:1013c000b6af9f00c7af9f005f8c9700e90f540036
:1013d00015003c006022b8006033b8001fa89700d9
:1013e000afa897003fa99700cfa997007f050700f6
:1013f000e00f5000320032001fa89700afa89700fe
:101400003fa99700cfa99700e1050700e00f500022
:10141000e08f5800e00f5900e08f590028003a0093
:10142000e10f5400260034000400200005002e00c7
:10143000b6e02200170124000fa097009fa097009c
:101440002fa19700bfa1970004050700e00f5000ef
:1014500002003d0073045400010037007204540080
:10146000d88f9f002f589700a0fd07000002be00f4
:101470000203be001fa89700afa897003fa99700de
:10148000cfa9970084a79f0095a79f00a6a79f00bc
:10149000b7a79f00fb040700bd0507000205be00bb
:1014a0000004be006000b8006011b80090af9f005b
:1014b000a1af9f00b2af9f00c3af9f0017003700de
:1014c0001fa89700afa897003fa99700cfa9970042
:1014d000af0507000205be000004be00dd050700e1
:1014e0000002be000203be001fa89700afa897002d
:1014f0003fa99700cfa99700930607000002be00fe
:101500000203be0094af9f00a5af9f00b6af9f003f
:10151000c7af9f000002eb00d48f9f00a19920006d
:1015200010c0b300080037003102be003103be0016
:101530000440e10005c8e10006d0e10007d8e10061
:10154000030039000040e800f44f5000f6ff3a0075
:101550009fb29700e0579f005f8a97005fab9700ac
:10156000048252000000fb000602520000005200fc
:1015700090b79f00e00f5300020032000000e90026
:1015800090b79f0063826600030032009fb397000c
:101590008703e90097b79f00648266004500320028
:1015a00062826600e1826600e00f520011003200a4
:1015b0003c0290000404b200080032001c037800d2
:1015c000b4c2b300e08f52000100320004c2e80050
:1015d000044b7800060ee80015003700b00220002a
:1015e000e08f5200010032000080e8008c0078009b
:1015f0000c003700e08f5200200032003c029000c7
:101600000404b200050032009c02780004c2b3005a
:10161000844a7800050ee800050037008c00780049
:101620000002200088030700e10f40001300320091
:101630000e07e800110037003c0290000404b200dd
:10164000040032001c027800054a7800040ee8000d
:1016500007003700f5b79f008c00780000032000da
:1016600079030700ffb29700e10f4000010032004c
:101670000e07e8008904e90006003700c8a79f00ac
:10168000d9a79f00eaa79f00fba79f009fb49700e0
:1016900005c3b300e08f5400e7ff3c0099b79f00fb
:1016a0004fa49700dfa497006fa59700ffa59700b0
:1016b0006e003700688266001f003a001100370094
:1016c0003c0290000404b200040032001c027800c6
:1016d000054a7800040ee80007003700f5b79f00c0
:1016e0008c0078000002200057030700ffb297002b
:1016f000e10f4000010032000e07e8008904e90014
:1017000006003700c8a79f00d9a79f00eaa79f003f
:10171000fba79f009fb4970005c2b300e08f540061
:10172000e7ff3c0099b79f004fa49700dfa4970004
:101730006fa59700ffa5970062826600e1826600b0
:10174000e00f5200110032003c0290000404b2008d
:10175000080032001c037800b4c2b300e08f5200ce
:101760000100320004c2e800044b7800060ee800d5
:101770003d003700b0022000e08f5200010032002f
:101780000080e8008c00780034003700e08f5200c1
:10179000360032003c0290000404b2000500320022
:1017a0009c02780004c2b300844a7800050ee80069
:1017b0002d0037008c007800000220002700370041
:1017c0003c0290008502fb000404b20013003200ca
:1017d00022992000c32add00850241009c00780088
:1017e0005503be004502be00c1a79f000800be0011
:1017f0000a01be0097060700a40020000500200093
:101800006033b8009a0607004fa2970005c3b300e3
:10181000054a4000040ee800130037002699200016
:10182000c32add00850243000800be000a01be0095
:101830005503be004502be0086060700a400200036
:10184000050020006033b800890607008c0078008e
:10185000040320000002420004007800fa0207009e
:10186000e10f4000010032000e07e8006f529700c0
:101870008442e900e5579f00e04f5200d0ff3a0054
:10188000110037003c0290000404b2000400320052
:101890001c027800084a7800040ee80005003700b2
:1018a0008c00780000032000e7020700e10f4000f1
:1018b000010032000e07e8005f8a97000402e90089
:1018c000d48f9f000100370008c3b3005f8a9700e0
:1018d000e00f5200ebff3c00dfab9700f28f5300ac
:1018e0000300340024c1b300e4579f000200370016
:1018f0002fd89700e0579f006f529700dfa89700fe
:101900008402fb0085825000c5a79f00e04f520073
:101910000e0032003c0290000404b20005003200c8
:101920001c027800e5c2b300054a7800040ee80006
:10193000050037008c007800e0022000c20207009a
:10194000e10f4000010032000e07e8006f509700e1
:1019500066fc07000002be000203be001fa897003d
:10196000afa897003fa99700cfa9970001050700ee
:1019700087040700350037003c0290008502fb0019
:101980000404b2001300320023992000c32add00b2
:10199000858241001c0178005503be004502be004f
:1019a000d2af9f000800be000a01be002906070052
:1019b000a4002000050020006033b8002c060700ba
:1019c0005faa970005c3b300054a4000040ee80073
:1019d0001300370026992000c32add00850243004a
:1019e0000800be000a01be005503be004502be004d
:1019f00018060700a4002000050020006033b8008e
:101a00001b0607008c00780004032000000242003f
:101a1000040078008c020700e10f40000100320052
:101a20000e07e800ef539700209920000702fb0003
:101a30004322dd00040240000800be000a01be008f
:101a40005403be004402be00090607006f5297000f
:101a50000205be000004be008442e900e5579f0075
:101a6000e04f5200c4ff3a0011003700bc02900062
:101a70000504b200040032009c027800844a780019
:101a8000050ee8000700370084bf9f008c00780037
:101a9000000320006c0207000fba9700e10f40001e
:101aa000010032000e07e8008904e9000600370053
:101ab000cfa49700d0af9f00e1af9f00f2af9f008f
:101ac00083b79f0004c3b300e08f5400e7ff3a00e0
:101ad0005fac9700efac97007fad97008fb5970094
:101ae000e88666004c0232009fb09700e08f5000fd
:101af000490234000802be000a03be000dc2b30052
:101b0000810478003c0090000004b2000400320020
:101b10001c0078000d487800000ee8000d0037002a
:101b200084bf9f00f5b79f00d6b79f00e7b79f001f
:101b30008c00780000022000430207000fba9700d3
:101b4000ffb297005fb39700efb39700e10f40003b
:101b5000010032000e07e8008904e900e9ff3a00bd
:101b60002d0237008d027800050cb2002a003a00e1
:101b7000e08f560005003d000fa997004205be000a
:101b80004204be0082af9f001600370070826600dc
:101b90000e0032000fab97004602be00c4979f00b4
:101ba000d5979f0086af9f00160290004fa2de00df
:101bb000e4979f00f4979f004f949700df9497005d
:101bc0006f959700ff959700060037000fa89700c4
:101bd0004004780080af9f00cfc4de000905780084
:101be0008a057800e00f5400e08f5c00e00f5d0094
:101bf000e08f5d0023003d006022b8006033b80034
:101c00003d00b3000804520089845a000a055b00b5
:101c10008b855b001b003700e08f560005003d0000
:101c20008fa897004105be004104be0081af9f0010
:101c300014003700f08266000c0032008faa970073
:101c40004501be00a4979f0082979f0093979f0035
:101c5000b4979f0085af9f000f9497009f949700c3
:101c60002f959700bf959700060037008fab970020
:101c70004704780087af9f00090020000a00200079
:101c80000b0020005fa89700e00f500009003a0009
:101c900011002000d1af9f00e00f5400e08f5c00e6
:101ca000e00f5d00e08f5d00020032000001eb00fc
:101cb000d2af9f008d01780004042000030cb20015
:101cc00093af9f00848f51002c00320003003c0032
:101cd000e08f5100080032003c003700040820006b
:101ce0009faa9700848f520010003200040c20003d
:101cf000848f520035003a00a599200014c0b3002b
:101d00003500be003501be000040e10001c8e10021
:101d100002d0e10003d8e1002b0039000442e800c2
:101d2000f44f5200f6ff3a002700370014c0b3000a
:101d300000012000010020006011b8000040e10017
:101d400001c8e10002d0e10003d8e1001e00390023
:101d5000460020000000d0008180d2000281d20025
:101d60008381d2000603e900faff3a000442e8004a
:101d7000f04f5200f1ff3a001300370014c0b300d7
:101d800080002000010020006011b8000040e10048
:101d900001c8e10002d0e10003d8e1000a003900e7
:101da000370020000000d0008180d2000281d200e4
:101db0008381d2008703e900faff3a000442e80079
:101dc000f54f5200f1ff3a00e4579f006f50970023
:101dd000dfa897000002fb00810f520002003d00c7
:101de000e1579f00040037005fa99700840f51005e
:101df00001003d00d4af9f009fb19700e08f5100dc
:101e00000400320063826600020032008301e900b0
:101e100093b79f000400240004826600090032008a
:101e20001fb29700dfaa9700850f5200030034000d
:101e30000502520094b79f00020037000003eb0038
:101e400096b79f00ef5397000000eb000702fb00de
:101e5000c0a79f009fb09700848f500002003400fd
:101e600004825000c4a79f006482660045003200cf
:101e7000e282660061826600e08f5200110032004b
:101e8000bc0290000504b200080032009c027800f9
:101e9000b6c2b300e00f52000100320006c3e800f2
:101ea000864a7800050ee80015003700b0022000d1
:101eb000e00f5200010032000080e8008c00780042
:101ec0000c003700e00f52000e0032003c02900080
:101ed0000404b200050032001c02780005c2b30001
:101ee000054a7800040ee800050037008c007800f1
:101ef0000002200054010700e10f40000100320001
:101f00000e07e8004fa19700e00f51006300320078
:101f100098b79f00a9b79f00bab79f00cbb79f00a3
:101f2000cfa4970004c3b300bc0290000504b20024
:101f3000040032009c027800844a7800050ee80014
:101f40000700370084bf9f008c007800000320004a
:101f50003d0107000fba9700e10f40000100320079
:101f60000e07e8008904e900efff3a00c9a79f00c7
:101f70001fb49700afb497003fb59700cfb5970057
:101f800046003700cfa09700e08f50001e003200bf
:101f9000688266001c003a0098b79f00a9b79f00ae
:101fa000bab79f00cbb79f00cfa4970004c2b3007d
:101fb000bc0290000504b200040032009c027800cc
:101fc000844a7800050ee8000700370084bf9f00b0
:101fd0008c007800000220001b0107000fba970058
:101fe000e10f4000010032000e07e8008904e9001b
:101ff000efff3a00c9a79f001fb49700afb4970046
:102000003fb59700cfb59700e28266006182660017
:10201000e08f520011003200bc0290000504b200b3
:10202000080032009c027800b6c2b300e00f5200f4
:102030000100320006c3e800864a7800050ee80079
:1020400015003700b0022000e00f520001003200fe
:102050000080e8008c0078000c003700e00f520090
:102060000e0032003c0290000404b2000500320071
:102070001c02780005c2b300054a7800040ee8008f
:10208000050037008c00780000022000ee000700f9
:10209000e10f4000010032000e07e800dfa89700c2
:1020a000259920000102e90098b79f00a9b79f0079
:1020b000bab79f00cbb79f004221dd006323b90070
:1020c000929f9f004322dd00860178008502420036
:1020d000839f9f00f59f9f00708266008d027800ad
:1020e000f48f9f000502b200e58f9f00a300370028
:1020f000dfa897001fa997008100e90003042000d2
:10210000d1af9f00830f51007300320003003c00e9
:10211000e00f5100080032007e0037000408200064
:102120009faa9700848f520056003200040c2000b2
:10213000848f520077003a00e08f56001f003d0068
:102140007f9b97001fb09700afb097003fb19700fb
:10215000cfb197003604be002605be000802be00bf
:102160000a03be003b0407000802be000a03be00cb
:10217000e0579f000000fb00cf80de0001017800e7
:10218000820178009c0407001fb29700afb297004d
:102190003fb39700cfb397000002520081825a00ec
:1021a00002035b0083835b0094b79f00a5b79f0089
:1021b000b6b79f00c7b79f002e003700ff8a970071
:1021c000e08f5200220032007f9b97001fb29700e1
:1021d000afb297003604be002605be000400be0064
:1021e00084bf9f00f5b79f000801be005803070099
:1021f0000801be00e0579f000000fb00cf80de001a
:10220000630307000fba9700ffb297000001520066
:1022100081815a000002eb00a29f9f00b39f9f00a4
:10222000d49f9f008001eb00c39f9f002f989700d1
:10223000bf9897004f999700df99970090b79f003c
:10224000a1b79f00b2b79f00c3b79f000900370036
:10225000ff9897001fb19700110278001100090044
:102260000481d800a4002000110009000480d800d7
:10227000e1579f00ef5197000343b000e3579f00e1
:102280002400370094972000ef8a9700e08f5200d7
:1022900001003200849620001fb09700afb0970075
:1022a0003fb19700cfb197001f9b97000603e9004d
:1022b000050033008301d1000281d3008180d30067
:1022c0000080d300f9ff37006f00600064407800a1
:1022d000e0579f000f0037001fb29700afb2970082
:1022e0003fb39700cfb397000f9897000000e90025
:1022f000050033008703d1000683d3008582d30015
:102300000482d300f9ff3700674262000443b00043
:10231000e4579f003c0290000404b2000700320022
:102320009c0278006f529700844a7800050ee800fe
:10233000e04f520007003a0007003700ef509700c7
:102340000100fb008c0078003f000700e10f400017
:10235000010032000e07e8001f9997008f9997003f
:102360007f9a970064015100e38151006802520096
:10237000929f9f00839f9f00f49f9f00dfaa97007a
:10238000e08f52005aff3a001fb49700afb4970095
:102390003fb59700cfb59700e88666001e00320073
:1023a0004fa39700e00f53001b0034000802be004b
:1023b0000a03be00cfa497000dc2b3003c009000fa
:1023c0000004b200040032001c0078000d487800c0
:1023d000000ee8000d00370084bf9f00f5b79f0096
:1023e000d6b79f00e7b79f008c007800000220005e
:1023f000150007000fba9700ffb297005fb3970070
:10240000efb39700e10f4000010032000e07e80033
:102410008904e900e9ff3a00ef9b97001740780034
:10242000e0579f00e04f500020fa3a000e0078007d
:102430004f0778004f06be004f05be004f04be0098
:10244000ef05b10000000600889fbe00010478007f
:102450008084eb0038029000e20262003b00320010
:1024600004037800980290000620b20002003a00af
:10247000e08f520035003a000490a00080047800fc
:1024800034049800f90fb200e08f520002003a00c5
:10249000a8029000050c7800ea8f540005003a006d
:1024a0000408b20003003a0088007800d000200041
:1024b000e5ff070018029000d8029000850f520037
:1024c0000b0032000402e80015c0b30014049800a9
:1024d00018027800094a7800040ce80084a520005e
:1024e000054a7800ea8f540018003a0005003700ca
:1024f0000940780088007800170007008004780001
:1025000012003700380290000410b2000f003200b1
:1025100018019000a80090004800900007f80700fc
:1025200018029000840f500004003200380290001e
:102530000403b300340498008084eb000002eb0035
:102540001404980028029000040c78000900780018
:102550004f04be00000006000200fa00889fbe0083
:1025600001047800a0ff9f003802900084027800e8
:102570000504b200020032000000fb003500370005
:10258000e202620005003a000403b300150498005b
:10259000340498000080eb002e003700d80490002f
:1025a000e08f540006003a0012002000e680570039
:1025b00048009000e1f70700190498002300370055
:1025c000a8029000e08f520008003a00b5a5200054
:1025d0000430a00025049800050c7800340498000d
:1025e000250020005504980015049800180190005b
:1025f000a800900048009000d0f707002802900043
:102600008082eb0015049800affa9700054a780025
:10261000040ce8002ffa9700ea4f52000b003a0032
:10262000380290000410b200080032001801900037
:10263000a800900048009000c0f707000002eb00df
:10264000a802900014049800050c78002ffa970057
:102650000400fb004f04be000080fa0000000600ea
:1026600000c0da00000006002800fa00889fbe00c3
:102670008a9fbe008c9fbe0007067800878669008f
:102680000c003b00030478008704780008f0a100e8
:1026900009f0a100840f5000858f5800860f590063
:1026a000890f5c00030033000cf0a20001003a0027
:1026b0000cf0a100fe0007006400e1005f003200a2
:1026c000780147006408e100610032006c014700b6
:1026d000748557003200be001201be003a04be00ed
:1026e0001a05be001e039000be0a90008503530029
:1026f00006003d000004fd008104fd000205fd0010
:102700008305fd008703ea00050378000df8a300a8
:102710000400320060041400e0841c0060051d0009
:10272000e0851d006022b8007d0320000d38e10027
:102730008006eb000b0039004433dd00f300b200eb
:102740008301730039003700848272000d02780023
:10275000e10664008b85d1000a85d3008984d3000b
:102760000884d3008703e900f7ff3b00080040001e
:10277000898048000a0149008b81490004003b0020
:1027800060001000e080180060011900e08119006d
:102790000358a300090032008d8272008482720007
:1027a000610260008301d1000281d3008180d300e7
:1027b0000080d3000603e8001b0037000348a30095
:1027c00017003a000600e000170034000603e90095
:1027d0000d00a3000000480081804800020149006c
:1027e000838149000348a3000f003a000600e0007f
:1027f000090034000603e900000040008180480021
:10280000020149008381490001003a000003eb0006
:102810000348a300f5ff32006022b8000200370031
:1028200084827200618266007500070003f0a100d7
:102830000cf0a70003f0a000b100370064014700ce
:102840006408e10002003a000df8a300a9003a0074
:102850003200be001201be00a90037008f1fd10058
:102860000e0307008f87e9000000e000000006006b
:10287000809feb00090307008f87e9000000e0005c
:10288000000006002800fa00889fbe008a9fbe0054
:102890008c9fbe0003866b00850007006400e1008a
:1028a000440032006408e1004a0032006100e100a7
:1028b000460032006108e10049003200ec064700a2
:1028c0006000b8003d02be003d03be00f486570024
:1028d0006011b8003d04be003d05be007d03200030
:1028e0000b0037000000a0008d06e9001300320045
:1028f0000402420085824a0006034b0087834b0096
:1029000000004000818048000201490083814900a5
:102910000802520089825a000a035b008b835b0025
:10292000f0ff3b000802420089824a000a034b0084
:102930008b834b008d06e900edff3a008482720024
:1029400086827200f707b2008782720001003200af
:10295000150020001e0490003e0b9000060354005a
:10296000e63fb0000368a300070032000000a700a4
:102970000500a0008301d1000281d3008180d30033
:102980000080d3000603e8008301d1000281d30058
:102990008180d3000080d3000002eb000482d200cb
:1029a0001700070003f0a1000cf0a70003f0a0003f
:1029b00053003700640247006408e1004d00320014
:1029c0003400be003401be00f6ff37006108e100ac
:1029d000480032006011b8006000b800f1ff370015
:1029e00003ff270002002000fbff3700801feb00e1
:1029f000aa0207008f87e9000000e000000006003f
:102a00001800200057002000080453000d003d006e
:102a10000600200097fc2f000740e1001e00340054
:102a200084827200610260008301d1000281d300c0
:102a30008180d3000080d3000804e800f8ff3a004a
:102a40004700200061046000050474000404640071
:102a50000d00320061004000e08048006001490044
:102a6000e081490003b8a500070032000603e80032
:102a70006538e10004003a008301d1000281d300ef
:102a80008180d3000080d300f87f20000830e1006f
:102a900003003500080378006000b8006011b8003a
:102aa0004433dd00f300b200830173000000060030
:102ab000680447000294be000094be00fc04470076
:102ac0008694be008494be0009007800bc02070012
:102ad00008007800ba02070099007800814f700062
:102ae0000b003b000800be00950207004f00b1003c
:102af00003003700f3ff2700f2ff2f006110b90039
:102b00004f06be004f05be004f04be000080fa0015
:102b100000000600810378006cf707000001be008a
:102b20006000b8000478a30013003a006220e100be
:102b300015003e000d0039008301d1000281d30051
:102b40008180d3008301d1000281d3008180d30032
:102b50008301d1000281d3008180d3000538b00009
:102b6000c42add00f300b2008381720007f0a700e1
:102b700003f0a00000000600f3ff2700f2ff2f0083
:102b80006110b900fbff370003ff2700f7ff370094
:102b90001400fa00889fbe008a9fbe008c9fbe0072
:102ba0000004be000205be00680047000a90be0097
:102bb0000890be00820207000070a7000bf0a10081
:102bc0000bf8a30020003a009e0990000e09900027
:102bd000fe0090006e0090009e02900034432000a2
:102be00084825200c6ff32000a003c00b4fc2f0071
:102bf0000428e100140034008301d1000281d300d5
:102c00008180d3000080d3008502e800faff3a00fb
:102c1000bbff3700b40020000428e10007003c009f
:102c20000000400081804800020149008381490082
:102c30008502e900faff3a00b1ff370003002800df
:102c400002002000010037006011b8006000b800e9
:102c5000abff3700889fbe00008270000402710045
:102c6000048271002400320036432000c500200099
:102c70008383cf000a0039000541b1008283cf0071
:102c8000070039000541b1008183cf0004003900fd
:102c90000541b1008083cf00010039000541b1003a
:102ca00085c353006022b800120032000a003b00c6
:102cb00084827200610260008301d1000281d3002e
:102cc0008180d3000080d3000603e8008743e8003a
:102cd000f7ff3a00070037000000400081804800fd
:102ce00002014900838149000603e9008743e900a6
:102cf000f9ff3a0042ff07004f04be000000060043
:102d00001400fa00889fbe008a9fbe008c9fbe0000
:102d1000040678000004be000205be0068004700fb
:102d20000a90be000890be00250207006200e10084
:102d30000800be000a01be00040020000b003a009b
:102d40001e029000e43fb1006e009000fe00900073
:102d50000e0990009e099000f300b20005fe2300ca
:102d6000858171000bf0a70003f0a000040e78002d
:102d700063ff37002800fa00889fbe008a9fbe00cc
:102d80008c9fbe0003866b0049ff07000028a3004c
:102d900064003a000128a30067003a000008a3007d
:102da00062003a000108a30065003a001e0090008e
:102db000be08900081064000ed3fb100f48057004e
:102dc000ee019000111ab8008e099000311bb80076
:102dd0009e099000311cb800511db800f4855700c1
:102de00046000700fe0190003a0007008b85e800ce
:102df0003e0007008e09900040000700ee019000a1
:102e0000340007008b85e800380007008e09900029
:102e1000400007009e0990001b18b800890440007c
:102e20000a854800fe019000340007008b85e80009
:102e300038000700ee019000300007008e09900076
:102e40001b18b800890440000a8548000a98a300ae
:102e500008003a000402420085824a0006034b0043
:102e600087834b0008044c0089844c000a054d0000
:102e70008d06e90084827200850273004c3add0001
:102e8000850272000100320015002000443ade0085
:102e90001400b2004538de00cb45dd000b007000a9
:102ea000c540de00cb4ddd008b8070004549de0063
:102eb000cb55dd000b017100c551de000d0378001c
:102ec000cffe070003f0a1000cf0a70003f0a00064
:102ed0000bff37001b18b80085024000068348002e
:102ee000e0834b0060044c00070037001b18b8005b
:102ef0000603400087834800faff37001b18b8001c
:102f00008703400008844800e0844c0060054d00c1
:102f1000000006001b18b80008044000898448001f
:102f2000faff37000108a300f2fe3a005800be0085
:102f30005801be00e3ff37000008a300edfe3a0091
:102f400009047800f9ff370007f0a200c6fd37003a
:102f50006022b800060220000000d0008180d2006c
:102f60000482d2008582d2000000a000020252003a
:102f700083825a00030031000202420083824a0029
:102f80000000a1000603e900f3ff3a00000006007c
:102f9000020ab900001bb9000200b800810042001b
:102fa0008100430000000600889fbe008a9fbe008b
:102fb0003004be002005be000404440085844c009b
:102fc00006054d0087854d000898be000a90be009a
:102fd0000440e10005c8e10006d0e10007d8e100a7
:102fe00002003100680040001008e8004f05be00f4
:102ff0004f04be00000006001000fa00889fbe00cb
:103000008a9fbe00110020000605be000404be0019
:103010003002be002003be00c4b79f00d5b79f009a
:10302000e6b79f00f7b79f000802520089825a0056
:103030000a035b008b835b0084bf9f0095bf9f00ea
:10304000a6bf9f00b7bf9f000498be000698be00b1
:103050004fb29700dfb297006fb39700ffb39700ae
:103060000820e10009a8e1000ab0e1000bb8e10086
:10307000010039008000eb004f05be0010881000f1
:103080004f04be000080fa00000006001400fa00a1
:10309000889fbe008a9fbe008c9fbe000006eb008a
:1030a0003e000700ccb79f00bcb79f00acb79f00a5
:1030b0009cb79f008cb79f000605be000404be00ad
:1030c0000d0420004fb39700bfb297008603430062
:1030d0002fb29700e00f530004003d003d000700b1
:1030e0000f004000b0ff0700030037003900070061
:1030f0000f004000c0ff0700cfb2970095bf9f00b0
:10310000e08f5200090035002b000700140020005a
:10311000050020006033b80000007200818072005a
:1031200002017300838173001c0007000c06e80095
:103130008d0f5600e3ff3a001fba9700e00f5200d0
:1031400005003d000802be000a03be0000fe2f007d
:103150000f00400094ff07004faa9700e00f5200b5
:1031600008003a000fb497009fb497002fb597005e
:10317000bfb59700d8b79f00e9b79f00fab79f0087
:103180008bbf9f000c0007004f06be004f05be001e
:103190004f04be000080fa00000006000100070096
:1031a0000000060090b79f00a1b79f00b2b79f0034
:1031b000c3b79f00000006000100070000000600e2
:1031c0001fb09700afb097003fb19700cfb1970005
:1031d000000006004f2bde00f9ff07008683730016
:1031e000858242004f23de00a7b79f0086827200cf
:1031f0000402420095b79f00ffaa97004f2bde0004
:10320000858242000602720084b79f006faa970071
:103210004f23de000402420086827200f5af9f0059
:103220004f18de0000027200e5ff0700e4af9f00c8
:10323000000040008180480002014900838149006c
:103240000802be000a03be00d6ff070000fe2f00e2
:1032500000000600881f780018002000881f7800f2
:103260008aff07008f87e9004f04780000000600fe
:10327000801feb0085ff07008f87e9000000060034
:10328000889fbe008a9fbe00e00f5000e08f58006c
:10329000e00f5900e08f59000c003d006044b80079
:1032a0006055b8000000540081805c0002015d00a0
:1032b00083815d00180020001500070008003d0014
:1032c000180007000004eb00050037000004eb00c5
:1032d0000f00070002003d00120007001800200048
:1032e000dcff0700e00f5400060032006022b80047
:1032f0006033b8000000520081805a0002015b0078
:1033000083815b004f05be004f04be000000060035
:10331000e00f5200e08f5a00e00f5b00e08f5b008f
:10332000000006006044b8006055b8000402540074
:1033300085825c0006035d0087835d000000060057
:10334000889fbe008a9fbe008c1f7800e00f50004f
:10335000e08f5800e00f5900e08f59000d003d004c
:103360006044b8006055b8001c0020000000540004
:1033700081805c0002015d0083815d000820e10026
:1033800009a8e1000ab0e1000bb8e1000d003d0022
:10339000080037000006eb00e00f5200e08f5a00f3
:1033a000e00f5b00e08f5b0006003d006044b8006a
:1033b0006055b8000402540085825c0006035d007d
:1033c00087835d00aaff0700e00f56000600320069
:1033d0006022b8006033b8000000520081805a00bb
:1033e00002015b0083815b004f0678004f05be0041
:1033f0004f04be0000000600889fbe008a9fbe00ea
:103400008c1f78000006eb00e00f5000e08f5800a2
:10341000e00f5900e08f590007003d006044b800fc
:103420006055b8001c0020000000540081805c0042
:1034300002015d0083815d00e00f5200e08f5a00c1
:10344000e00f5b00e08f5b0007003d006044b800c8
:103450006055b8000c00a2000402540085825c0094
:1034600006035d0087835d007c000700e00f5600c7
:10347000060032006022b8006033b800000052003d
:1034800081805a0002015b0083815b004f06780057
:103490004f05be004f04be0000000600889fbe001e
:1034a0008a9fbe008c9fbe000404be000605be00bd
:1034b000809fbe00829fbe002f0007000406780098
:1034c0000800be000a01be002b0007008406780039
:1034d0004f03be004f02be008d4f76007fb09700b5
:1034e00013003300f0ff2f008b8f6b0006003b00b2
:1034f0000d0666000c00a7000a00370007f0a600c2
:10350000100020000a003700880f5200898f5a00ef
:103510008a0f5b008b8f5b000300390010002000d6
:1035200001003e000000200007f0a7000000ea00b4
:103530004f06be004f05be004f04be00000006004f
:10354000e48240001078a3000700320064024000cb
:103550001178a3003400be001401be000400320044
:103560000330a700000006003500be001501be00b4
:103570000330a0000000060005ff2700058261005f
:10358000070032000428e100010032002400050099
:103590000600070001003a00440005000408050089
:1035a00002000700f9ff3a00140005006f82610075
:1035b0008102700085027100850272000000060021
:1035c000800078005002be005003be004439de0087
:1035d000f700b200f37f2000030161000900320010
:1035e0000218e10016003a008501720083017300a1
:1035f000838173000008200015003a00400020007d
:10360000130037008501720083017300838173000a
:1036100005003a0004a8be0006a8be001000200065
:103620000b0037000201e9000402420085824a00d3
:1036300006034b0087834b000748a300f9ff3200c5
:103640000740a00004a8be0006a8be00200020007d
:10365000800098009200980000000600889fbe003d
:103660008a9fbe008c9fbe000404b8000506b80007
:103670008904460060854e000606b8000a0546002b
:10368000e0854e000706b8008b054600040eb80022
:10369000890446000a854e00e0854d00050eb800fd
:1036a0000a0546008b854e00060eb8008b054600c5
:1036b0000416b8000a0546008b854e000516b800b2
:1036c0008b054600041eb8008b0546000800be00ae
:1036d0000a01be004f06be004f05be004f04be00eb
:0436e00000000600e0
:020000040000fa
:1036e40025300000326400003a250000303200002a
:1036f400643a00002530000032640000000000003d
:10370400486500006c6c00006f21000000000000a0
:10371400253100002e350000665600000000000030
:020000040000fa
:103724000800fa00004f780011079800220798005b
:10373400330798003e029000e00f52000900320067
:1037440065168000f4ff2000848262001e43780026
:103754000682fb004c22dd0005027200641688001c
:103764000a00370065168000f4ff2000848262009e
:103774001e4278000483fb00040f2000040263004f
:103784004822dd0005027200641688001e029000c3
:1037940004427800614262000482fb00610262001c
:1037a4004722dd0066168000f5f72f0085026300ce
:1037b40005027200641688001000200061020700f0
:1037c400ccc2a800100020005e020700ccc2a900f1
:1037d400100020005b0207002e0090005902070031
:1037e4000080fa00000006000600fa00004f78008e
:1037f40011079800220798008001eb002e01900029
:103804009e0090001e407800c5ff070013002000b2
:103814002e0190009e0090001e407800c0ff07001b
:103824000080fa00000006000200fa00004f780051
:103834001e427800e20220001100200004407800bb
:10384400e9ff07000080fa00000006000000fa000b
:103854000002eb0064168800c9e2a900c9c2a900ed
:10386400c9a2a900c982a900c8e2a900c8c2a900c6
:10387400cce2a900cda2a800cd82a800ccc2a800a9
:10388400100020002f020700ccc2a9001000200065
:103894002c020700800621002a020700ccc2a800df
:1038a4001000200027020700ccc2a900100020004d
:1038b400240207008007200022020700ccc2a800cf
:1038c400100020001f020700ccc2a9001000200035
:1038d4001c020700800720001a020700cce2a9009e
:1038e400cda2a800cd82a900ccc2a800100020005f
:1038f40014020700ccc2a900100020001102070026
:10390400800720000f020700220320008000eb0044
:1039140080c2b300b4ff0700220320008000eb0044
:1039240080c0b300b0ff0700027d20008000eb00e0
:1039340010c0b300acff0700220320008000eb009e
:1039440060c0b300a8ff0700220320008000eb0042
:10395400c0c0b300a4ff07000080fa000000060006
:103964000400fa0010079800070037001e029000b8
:10397400144f78001e407800abff07001e02900031
:103984000402e800140798001e0290001442780014
:10399400e04f5200f5ff3a000080fa0000000600f4
:1039a4000000fa00027d20008000eb0010c0b3008c
:1039b4008dff07000080fa00000006000200fa00f4
:1039c400004f7800114798001e427800e14f5200e2
:1039d40008003a009e42900004ccb30004c24200a6
:1039e400220320008000eb00044078007eff0700e3
:1039f400070037009e42900004c8b30004c242008e
:103a0400220320008000eb000440780076ff0700ca
:103a14000080fa00000006000200fa008bff070095
:103a24000002eb00040f780030c6b3007eff0700ed
:103a34000002eb00040f780003003700803e2000f2
:103a4400c00107001e0fe800743e20009e027800ab
:103a5400848f5200f9ff3400d1ff070020b82900f9
:103a6400bfff070021c0b30010c0b300d3ff07009d
:103a74000002eb00040f780003003700803e2000b2
:103a8400b00107001e0fe800743e20009e0278007b
:103a9400848f5200f9ff340020b82900b0ff0700da
:103aa4000002eb00040f780003003700803e200082
:103ab400a40107001e0fe800743e20009e02780057
:103ac400848f5200f9ff34000080fa0000000600e1
:020000040000fa
:103ad40006080000020000000200000003000000cd
:103ae4000008000006000000000000006809000053
:103af400ca000000020000003031320033343500c7
:103b0400363738003941420043444500460030000e
:103b1400313233003435360037383900616263009e
:103b24006465660000286e00756c6c002900000056
:103b3400010000000000000000000a000000000076
:103b4400000000000064000000000000000000000d
:103b5400e80300000000000000001000270000003f
:103b64000000000000a0860001000000000000002a
:103b740040420f0000000000000080009698000002
:103b8400000000000000e100f50500000000000056
:103b940000ca9a003b00000000000000e40b54003f
:103ba400020000000000e800764817000000000052
:103bb4000010a500d4e8000000000000a0724e0030
:103bc40018090000000040007a10f3005a000000b9
:103bd4000080c600a47e8d000300000000c16f00b9
:103be400f2862300000000008a5d7800456301002e
:103bf40000006400a7b3b600e00d000000e88900ef
:103c04000423c7008a0000000808000060010000c7
:103c1400020000000000000000000000f03f00006f
:103c2400000000000000240040000000000000002c
:103c34000059400000000000000040008f400000d8
:103c4400000000000088c3004000000000000000e5
:103c54006af8400000000000008084002e4100004b
:103c640000000000d0126300410000000000840046
:103c7400d7974100000000000065cd00cd41000051
:103c8400000020005fa002004200000000801d0030
:103c9400af1544000000000040593e0029460000d2
:103ca400000000000000f0007f00000000000000a1
:103cb40000f07f000000000000000000f07f000022
:103cc400000000000000f0007f0000000000000081
:103cd40000f07f000000000000000000f07f000002
:103ce400000000000000f0007f0000000000000061
:103cf40000f07f000000000000000000f07f0000e2
:103d0400000000000000f0003f00000000a0990047
:103d140099b93f000000000040e17a00843f0000b0
:103d24000000e0004d6250003f00000000e0e200af
:103d3400361a3f000000000080b5f800e43e0000a1
:103d44000000a000f7c6b0003e00000000a0f20092
:103d5400d77a3e0000000000e08e7900453e000066
:103d64000000e0000b2e11003e00000000e0df0028
:103d74007cdb3d000000000000a19c00c73b00006c
:103d8400000000004c48b40039000000000020008e
:103d94006ca13700000000000000000000000000db
:103da400000000000000000000000000000000000f
:103db40000000000000000000000000000000000ff
:103dc40000000000000000000000000000000000ef
:103dd40000000000000000000000000000000000df
:103de400000000000000000000000000320a000093
:103df4002600000002000000590a000000590a00d1
:103e040009000000000200005b0a0000005b0a00d9
:103e14000e0201000000000000000000000000008d
:103e24000602020000000000320a0000580a0000e6
:103e340006000000000000005e0a0000020000000e
:0c3e44000200000001000000000000006f
:020000040000fa
:103e50000e00fa007efe07006f0107003c0107001c
:103e6000c962a900cd62a800c8a2a8008660a90006
:103e70009660a8006360a80014408000e00f520024
:103e80001b0032008040eb000040eb00ccfe07003e
:103e900024408000cfa2de000400be00d7f107005e
:103ea0000002be00d280260033b523000400be000d
:103eb000d5f107000002be00048fbe006403470076
:103ec0001e02be00849fbe00a4b82900841f780093
:103ed0000600780092f20700e68757006402470068
:103ee000040078009ffe07000002eb0014408800e9
:103ef000344080000500200046002000070020001c
:103f0000860f5200878f5a0063003e000460010054
:103f1000220037001a00370002003700380037004f
:103f20003e00370005368000f40f2e000482620048
:103f30000436880015368000f40f2e0004826200db
:103f4000143688001536800004fe2f0004826200bb
:103f50002401b300143688000536800004fe2f00cb
:103f6000048262003401b30004368800340020006b
:103f70000440880044002000344088004900370095
:103f80000002eb00040c88000002eb00340c8800f7
:103f900024002000044088004200370015368000cd
:103fa00004fe2f000482620014368800053680006b
:103fb00004fe2f000482620004368800053680006b
:103fc000f40f2e008482620004302100050272008a
:103fd0000436880015368000f40f2e0084826200bb
:103fe000042021000502720014368800140020000d
:103ff0000440880044002000344088002900370035
:104000000002eb00040c88000002eb00340c880076
:104010000002eb00044088002200370025408000a9
:10402000f41f2000848f52000a00340024408000d6
:10403000f53f2000048252000402420004f0a70071
:104040000402ea00340c8800f43f2000040c8800cd
:104050001000370025408000341f2000848f52005c
:1040600008003c00f43f2000340c8800244080000d
:104070000402420004f0a7000402ea00040c8800d5
:1040800004003700f43f2000040c8800f43f2000b7
:10409000340c8800030037000002eb003440880035
:1040a0000000000074ff3700801f7800841f780034
:1040b0003400f80000002000a00188000000fa0091
:1040c00085a0a90004188000244088001400200066
:1040d000144088000080fa003400f9004f02780094
:1040e0004f00780000400600801f7800849fbe00cb
:1040f0003400f80000002000a00188000000fa0051
:104100008660a90055168000040220000482620027
:10411000e00f520007003200551680000402200014
:1041200004826200e00f520002003200044080006e
:10413000344088000080fa003400f9004f02be00cd
:104140004f007800004006000200fa00000f7800df
:104150000002eb00340888001e0278006e22b900cd
:10416000040278000402e9006408880084e0a900e1
:10417000840880000440a1000450a1008408880045
:1041800011e1a800000000002504800004082000c0
:1041900004826200e00f5200fbff320011e1a9002f
:1041a0000080fa00000006000200fa00000f78000c
:1041b0000002eb0034088800f40f2e006408880029
:1041c00084e0a900840880000440a0000450a000fe
:1041d0008408880011e1a8000800370000000000f2
:1041e000250480000408200004826200e00f5200d1
:1041f000fbff320084e0a9001e0fe9001e027800d8
:10420000e00f5200f5ff3a0011e1a9000080fa002a
:10421000000006000000fa000002eb0034088800ed
:10422000f43f22006408880084e0a900840880002c
:104230000440a0000450a1008408880011e1a800f7
:1042400000000000250480000408200004826200b1
:10425000e00f5200fbff320011e1a9000080fa00dc
:10426000000006000a00fa00300798004107980095
:10427000be02900044062000110009008402d8000c
:1042800001027800040f7800be029000440620006e
:10429000110009008402d80000027800840278002e
:1042a000c4032000110009008402d8000102780034
:1042b00014079800be029000440620001100090077
:1042c0008402d80000027800840278001e02900068
:1042d00084825200c4032000110009008402d80027
:1042e00000027800240798009e1f78001e029000ac
:1042f000841f78002e009000801f780024b72900ca
:10430000841f78004e00900085f10700e887570071
:104310000080fa00000006000000fa000002eb0036
:1043200004088800f4232000140888008460a90091
:104330009460a800240880000440a0000450a0005d
:104340002408880005e1a8000080fa0000000600ab
:104350000000fa002c03a900041980000480a100c9
:104360000490a10004198800041980000450a000e2
:104370000460a0000470a000041988002043a80075
:104380001419800004d0a10004e0a10004f0a100f1
:10439000141988002343a900141980000420a100e7
:1043a0000430a1000440a1000450a10014198800a9
:1043b0002203a90025e3a90025198000f40f2e008f
:1043c0008482620004102000050272002419880013
:1043d000a4c0b3000400780024e3b7000002eb009f
:1043e00044198800441980000400a1000410a100b1
:1043f0000420a1000430a100441988000002eb0051
:104400008419880021e3a80095a0a80085a0a90030
:104410000080fa00000006000000fa009408800006
:104420000440a0000450a100940888000002eb00a2
:1044300054088800f43f2000740888008461a800b4
:104440008a61a800240c80000400a1000410a000d0
:104450000420a000240c8800540c80000400a1005b
:104460000410a0000420a000540c88001536800021
:1044700004fe2f00048262002401b3001436880079
:104480000536800004fe2f00048262003401b30070
:10449000043688000002eb00140c88000002eb00d8
:1044a000440c88000002eb00040c88000002eb00c2
:1044b000340c880013e1a8000080fa000000060018
:020000040000fa
:020000040001f9
:0457f800ad7b000085
:020000040000fa
:020000040001f9
:0457fc003f3f00002b
:00000001FF
